:100000000C942A000C943F000C943F000C943F0089
:100010000C943F000C943F000C943F000C943F0064
:100020000C943F000C943F000C943F000C943F0054
:100030000C943F000C943F000C943F000C943F0044
:100040000C943F000C943F000C943F000C943F0034
:100050000C943F0011241FBECFE5D8E0DEBFCDBF1A
:1000600010E0A0E6B0E0E4EAF4E002C005900D92F2
:10007000A63FB107D9F70E949F010C9450020C943F
:10008000000095B39D7F95BB95B39E7F95BB82BBCA
:1000900085B3846085BB8FEC97E00197F1F700C0D2
:1000A000000085B38B7F85BB089595B39D7F95BB7D
:1000B00095B3916095BB82BB85B3846085BB8FECA3
:1000C00097E00197F1F700C0000085B38B7F85BBF7
:1000D00008950F931F93CF93DF938C01C0E0D0E07E
:1000E0000CC00E9455002FEF80E792E02150804025
:1000F0009040E1F700C000002196F801EC0FFD1FD1
:1001000080818111EECFDF91CF911F910F910895E2
:100110008FEF81BB84B3876084BB8FE39CE9019739
:10012000F1F700C0000088E30E9441008EE00E94C9
:10013000410081E00E9441008FEC97E00197F1F7C8
:1001400000C00000089540E050E037C080EF8ABB57
:100150009A012C5F3F4F81E090E002C0880F991F09
:100160002A95E2F780958BBB20E030E021C089B36F
:1001700090E0022E02C0959587950A94E2F780FDE3
:1001800015C089B390E0022E02C0959587950A9418
:10019000E2F780FFF6CF220F331F220F331F2455C3
:1001A0003F4FF901E40FF51F808108952F5F3F4F06
:1001B00024303105E4F24F5F5F4F4430510534F293
:1001C000C2CFCF930E94A300C82F81110E94550077
:1001D0008C2FCF9108950F931F93CF938C01C0E084
:1001E0000E94E100F801EC0FF11D8083CF5FC43065
:1001F000B8F3F801EC0FF11D1082CF911F910F9110
:100200000895BC0190E020C0FB01E20FF31F508174
:1002100083E1989FF0011124E05AFF4FE20FF31F92
:10022000408154130BC02F5F3F4F02C020E030E0ED
:10023000243031054CF321E030E002C020E030E012
:100240002130310561F09F5F943080F380EC0E9493
:1002500041008CEB90E00E94690087E70895892FA8
:100260000895DC0120E030E011C0FD01E20FF31F32
:10027000408183E1689FF0011124E05AFF4FE20FB3
:10028000F31F9581491307C02F5F3F4F243031057D
:1002900064F381E3089580E3089548B321E030E0FA
:1002A000B90102C0660F771F8A95E2F7CB01462796
:1002B00048BB7FEF21EE34E0715020403040E1F741
:1002C00000C0000098B3982798BB4FEF61EE74E030
:1002D000415060407040E1F700C0000098B398279B
:1002E00098BB2FEF31EE44E0215030404040E1F721
:1002F00000C0000098B3982798BB6FEF71EE24E020
:10030000615070402040E1F700C0000098B398278A
:1003100098BB3FEF41EE64E0315040406040E1F770
:1003200000C0000098B3892788BB7FEF81EE94E07E
:10033000715080409040E1F700C000000895CF93D5
:10034000DF93CDB7DEB72A970FB6F894DEBF0FBEA6
:10035000CDBF0E9488008FEF87BB88B3846088BBC5
:1003600088B3877F88BB88B38E7F88BB88B38D7F37
:1003700088BB80E80E94410085EC90E00E94690003
:10038000CE0106960E94EB00CE0106960E94010166
:10039000182F873709F47DC02FEF39E688E1215007
:1003A00030408040E1F700C0000081E00E94410041
:1003B00080E80E9441008AEC90E00E946900CE0132
:1003C00001960E94EB00612FCE0101960E9431013F
:1003D000803371F480EC0E94410085ED90E00E9432
:1003E000690082E00E944D0181E00E944100B5CF8A
:1003F00080EC0E94410084EE90E00E9469009FE73B
:100400002AE136E0915020403040E1F700C0000082
:1004100081E00E94410080E80E9441008EEE90E061
:100420000E94690023E1129FC001112486599F4F49
:100430000E94690098B384E0892788BB98B388E05C
:10044000892788BB88B311E0812788BB83E00E949D
:100450004D013FEF88E09DE3315080409040E1F74F
:1004600000C0000088B3182718BB98B382E0982713
:1004700098BB2FEF38E09DE3215030409040E1F7EA
:1004800000C0000098B3892788BB81E00E9441002A
:1004900064CF82E00E944D0181E00E9441005DCF67
:0404A000F894FFCFFE
:1004A400303030310031313131006A6F686E000014
:1004B400000000303030320032323232005269747F
:1004C4006F0000000000303030330033333333002A
:1004D40072616861660000000030303034003434EA
:1004E4003434007469666100000000002B2D2A2F4B
:1004F4003D333639303235386331343777726F6E85
:1005040067204944004944203A0070617373776F4F
:100514007264203A0077726F6E672070617373772C
:100524006F72640077656C636F6D652021004865A8
:060534006C6C6F2000005A
:00000001FF
